{
  "_format": "hh3-artifact-1",
  "contractName": "Observations",
  "sourceName": "contracts/Observations.sol",
  "abi": [
    {
      "inputs": [],
      "name": "InvalidParent",
      "type": "error"
    },
    {
      "inputs": [],
      "name": "InvalidRecipient",
      "type": "error"
    },
    {
      "inputs": [],
      "name": "NoTipsToClaim",
      "type": "error"
    },
    {
      "inputs": [],
      "name": "NotAuthorized",
      "type": "error"
    },
    {
      "inputs": [],
      "name": "TipsNotYetClaimable",
      "type": "error"
    },
    {
      "inputs": [],
      "name": "TransferFailed",
      "type": "error"
    },
    {
      "inputs": [],
      "name": "UpdateRequiresParent",
      "type": "error"
    },
    {
      "anonymous": false,
      "inputs": [
        {
          "indexed": true,
          "internalType": "address",
          "name": "collection",
          "type": "address"
        },
        {
          "indexed": true,
          "internalType": "uint256",
          "name": "tokenId",
          "type": "uint256"
        },
        {
          "indexed": true,
          "internalType": "address",
          "name": "observer",
          "type": "address"
        },
        {
          "indexed": false,
          "internalType": "uint64",
          "name": "id",
          "type": "uint64"
        },
        {
          "indexed": false,
          "internalType": "uint64",
          "name": "parent",
          "type": "uint64"
        },
        {
          "indexed": false,
          "internalType": "bool",
          "name": "update",
          "type": "bool"
        },
        {
          "indexed": false,
          "internalType": "string",
          "name": "note",
          "type": "string"
        },
        {
          "indexed": false,
          "internalType": "int32",
          "name": "x",
          "type": "int32"
        },
        {
          "indexed": false,
          "internalType": "int32",
          "name": "y",
          "type": "int32"
        },
        {
          "indexed": false,
          "internalType": "uint8",
          "name": "viewType",
          "type": "uint8"
        },
        {
          "indexed": false,
          "internalType": "uint32",
          "name": "time",
          "type": "uint32"
        },
        {
          "indexed": false,
          "internalType": "uint256",
          "name": "tip",
          "type": "uint256"
        },
        {
          "indexed": false,
          "internalType": "address",
          "name": "tipRecipient",
          "type": "address"
        }
      ],
      "name": "Observation",
      "type": "event"
    },
    {
      "anonymous": false,
      "inputs": [
        {
          "indexed": true,
          "internalType": "address",
          "name": "recipient",
          "type": "address"
        },
        {
          "indexed": true,
          "internalType": "address",
          "name": "claimant",
          "type": "address"
        },
        {
          "indexed": false,
          "internalType": "uint256",
          "name": "amount",
          "type": "uint256"
        }
      ],
      "name": "TipsClaimed",
      "type": "event"
    },
    {
      "inputs": [
        {
          "internalType": "address",
          "name": "",
          "type": "address"
        },
        {
          "internalType": "uint256",
          "name": "",
          "type": "uint256"
        }
      ],
      "name": "artifacts",
      "outputs": [
        {
          "internalType": "uint64",
          "name": "count",
          "type": "uint64"
        },
        {
          "internalType": "uint128",
          "name": "firstBlock",
          "type": "uint128"
        }
      ],
      "stateMutability": "view",
      "type": "function"
    },
    {
      "inputs": [
        {
          "internalType": "address",
          "name": "tipRecipient",
          "type": "address"
        }
      ],
      "name": "claimTips",
      "outputs": [],
      "stateMutability": "nonpayable",
      "type": "function"
    },
    {
      "inputs": [
        {
          "internalType": "address",
          "name": "collection",
          "type": "address"
        },
        {
          "internalType": "uint256",
          "name": "tokenId",
          "type": "uint256"
        },
        {
          "internalType": "uint64",
          "name": "parent",
          "type": "uint64"
        },
        {
          "internalType": "bool",
          "name": "update",
          "type": "bool"
        },
        {
          "internalType": "string",
          "name": "note",
          "type": "string"
        },
        {
          "internalType": "int32",
          "name": "x",
          "type": "int32"
        },
        {
          "internalType": "int32",
          "name": "y",
          "type": "int32"
        },
        {
          "internalType": "uint8",
          "name": "viewType",
          "type": "uint8"
        },
        {
          "internalType": "uint32",
          "name": "time",
          "type": "uint32"
        },
        {
          "internalType": "address",
          "name": "tipRecipient",
          "type": "address"
        }
      ],
      "name": "observe",
      "outputs": [],
      "stateMutability": "payable",
      "type": "function"
    },
    {
      "inputs": [
        {
          "internalType": "address",
          "name": "",
          "type": "address"
        }
      ],
      "name": "tips",
      "outputs": [
        {
          "internalType": "uint128",
          "name": "balance",
          "type": "uint128"
        },
        {
          "internalType": "uint128",
          "name": "unclaimedSince",
          "type": "uint128"
        }
      ],
      "stateMutability": "view",
      "type": "function"
    }
  ],
  "bytecode": "0x608080604052346015576105bd908161001a8239f35b5f80fdfe6080806040526004361015610012575f80fd5b5f3560e01c9081631b21bc30146104a957508063cac751de14610239578063dd772be1146101dd5763fe30463614610048575f80fd5b346101d95760203660031901126101d9576001600160a01b036100696104ef565b168033148015806101bc575b61016d575b1561015e57805f52600160205260405f20906001600160801b0382541691821561014f575f9081905580808085335af13d1561014a573d67ffffffffffffffff81116101365760405190601f8101601f19908116603f0116820167ffffffffffffffff8111838210176101365760405281525f60203d92013e5b15610127576040519182527f64386e335e1bb9d9b5134f09a2cde00f60223db82f24e191d9f220d59ba99e6960203393a3005b6312171d8360e31b5f5260045ffd5b634e487b7160e01b5f52604160045260245ffd5b6100f4565b6338b5b97960e21b5f5260045ffd5b63ea8e4eb560e01b5f5260045ffd5b50805f52600160205260405f205460801c42034281116101a8576301e13380101561019957600161007a565b63fac10d1560e01b5f5260045ffd5b634e487b7160e01b5f52601160045260245ffd5b50735ca3d797bf631603efcb3885c8b50a6d608346003314610075565b5f80fd5b346101d95760403660031901126101d9576001600160a01b036101fe6104ef565b165f525f60205260405f206024355f526020526040805f20546001600160801b0382519167ffffffffffffffff81168352831c166020820152f35b6101403660031901126101d95761024e6104ef565b6024356044359167ffffffffffffffff83168093036101d957606435801515908181036101d9576084359267ffffffffffffffff84116101d957366023850112156101d95783600401359567ffffffffffffffff87116101d95736602488870101116101d95760a4358060030b8091036101d95760c4358060030b8091036101d95760e4359160ff83168093036101d957610104359363ffffffff85168095036101d957610124356001600160a01b03811696908790036101d9573415159081806104a1575b6104925760018060a01b0316998a5f525f60205260405f208c5f5260205260405f2098895467ffffffffffffffff811615610450575b5089549967ffffffffffffffff6001818d160116809b67ffffffffffffffff1916179055898410156104415780610439575b61042a577f917be874c35f5d6acb015b2306a0643c0089aa82f579c9d9e43a295348b8224c998d93602493610411575b6040519a8b5260208b015260408a015261014060608a0152826101408a0152016101608801375f6101608b88010152608086015260a085015260c084015260e083015234610100830152610120820152610160813396601f80199101168101030190a4005b895f52600160205261042560405f20610505565b6103ac565b63e94f309160e01b5f5260045ffd5b50821561037c565b630bea7bb360e31b5f5260045ffd5b77ffffffffffffffffffffffffffffffff000000000000000019164360401b77ffffffffffffffffffffffffffffffff000000000000000016178a558e61034a565b634e46966960e11b5f5260045ffd5b508715610314565b346101d95760203660031901126101d9576040906001600160a01b036104cd6104ef565b165f526001602052815f20546001600160801b038116825260801c6020820152f35b600435906001600160a01b03821682036101d957565b3415610584576001600160801b038154161561055a575b6001600160801b0334166001600160801b03825416016001600160801b0381116101a8576001600160801b03166001600160801b0319825416179055565b80546001600160801b03164260801b6fffffffffffffffffffffffffffffffff191617815561051c565b5056fea264697066735822122080b7a4455c3fa01af00356df2899a8717fc30a5fbfca971ea63fb452aa3ca2f564736f6c634300081c0033",
  "linkReferences": {},
  "deployedLinkReferences": {},
  "immutableReferences": {},
  "inputSourceName": "project/contracts/Observations.sol",
  "buildInfoId": "solc-0_8_28-0bc086046c4daccc24c13b6c098496bf84918fc0"
}