{
  "_format": "hh3-artifact-1",
  "contractName": "Observations",
  "sourceName": "contracts/Observations.sol",
  "abi": [
    {
      "anonymous": false,
      "inputs": [
        {
          "indexed": true,
          "internalType": "address",
          "name": "collection",
          "type": "address"
        },
        {
          "indexed": true,
          "internalType": "uint256",
          "name": "tokenId",
          "type": "uint256"
        },
        {
          "indexed": true,
          "internalType": "address",
          "name": "observer",
          "type": "address"
        },
        {
          "indexed": false,
          "internalType": "string",
          "name": "note",
          "type": "string"
        },
        {
          "indexed": false,
          "internalType": "bool",
          "name": "located",
          "type": "bool"
        },
        {
          "indexed": false,
          "internalType": "int32",
          "name": "x",
          "type": "int32"
        },
        {
          "indexed": false,
          "internalType": "int32",
          "name": "y",
          "type": "int32"
        },
        {
          "indexed": false,
          "internalType": "uint8",
          "name": "viewType",
          "type": "uint8"
        },
        {
          "indexed": false,
          "internalType": "uint32",
          "name": "time",
          "type": "uint32"
        }
      ],
      "name": "Observation",
      "type": "event"
    },
    {
      "inputs": [
        {
          "internalType": "address",
          "name": "",
          "type": "address"
        },
        {
          "internalType": "uint256",
          "name": "",
          "type": "uint256"
        }
      ],
      "name": "artifacts",
      "outputs": [
        {
          "internalType": "uint128",
          "name": "count",
          "type": "uint128"
        },
        {
          "internalType": "uint128",
          "name": "firstBlock",
          "type": "uint128"
        }
      ],
      "stateMutability": "view",
      "type": "function"
    },
    {
      "inputs": [
        {
          "internalType": "address",
          "name": "collection",
          "type": "address"
        },
        {
          "internalType": "uint256",
          "name": "tokenId",
          "type": "uint256"
        },
        {
          "internalType": "string",
          "name": "note",
          "type": "string"
        },
        {
          "internalType": "uint8",
          "name": "viewType",
          "type": "uint8"
        },
        {
          "internalType": "uint32",
          "name": "time",
          "type": "uint32"
        }
      ],
      "name": "observe",
      "outputs": [],
      "stateMutability": "nonpayable",
      "type": "function"
    },
    {
      "inputs": [
        {
          "internalType": "address",
          "name": "collection",
          "type": "address"
        },
        {
          "internalType": "uint256",
          "name": "tokenId",
          "type": "uint256"
        },
        {
          "internalType": "string",
          "name": "note",
          "type": "string"
        },
        {
          "internalType": "int32",
          "name": "x",
          "type": "int32"
        },
        {
          "internalType": "int32",
          "name": "y",
          "type": "int32"
        },
        {
          "internalType": "uint8",
          "name": "viewType",
          "type": "uint8"
        },
        {
          "internalType": "uint32",
          "name": "time",
          "type": "uint32"
        }
      ],
      "name": "observeAt",
      "outputs": [],
      "stateMutability": "nonpayable",
      "type": "function"
    }
  ],
  "bytecode": "0x6080604052348015600e575f5ffd5b506104948061001c5f395ff3fe608060405234801561000f575f5ffd5b506004361061003f575f3560e01c80633def8c8d14610043578063dab49e4714610058578063dd772be11461006b575b5f5ffd5b6100566100513660046102b0565b6100ca565b005b61005661006636600461034a565b610137565b6100a66100793660046103c3565b5f6020818152928152604080822090935290815220546001600160801b0380821691600160801b90041682565b604080516001600160801b0393841681529290911660208301520160405180910390f35b6100d488886101a1565b336001600160a01b031687896001600160a01b03167ff95469b26088ac5aa1ccf26ee58135d7327387828efbc3c3616477da79129c05898960018a8a8a8a6040516101259796959493929190610413565b60405180910390a45050505050505050565b61014186866101a1565b336001600160a01b031685876001600160a01b03167ff95469b26088ac5aa1ccf26ee58135d7327387828efbc3c3616477da79129c0587875f5f5f8a8a6040516101919796959493929190610413565b60405180910390a4505050505050565b6001600160a01b0382165f908152602081815260408083208484529091528120805490916001600160801b0390911690036101ef5780546001600160801b03438116600160801b0291161781555b80546001600160801b03808216600101166fffffffffffffffffffffffffffffffff199091161790555050565b80356001600160a01b0381168114610232575f5ffd5b919050565b5f5f83601f840112610247575f5ffd5b50813567ffffffffffffffff81111561025e575f5ffd5b602083019150836020828501011115610275575f5ffd5b9250929050565b8035600381900b8114610232575f5ffd5b803560ff81168114610232575f5ffd5b803563ffffffff81168114610232575f5ffd5b5f5f5f5f5f5f5f5f60e0898b0312156102c7575f5ffd5b6102d08961021c565b975060208901359650604089013567ffffffffffffffff8111156102f2575f5ffd5b6102fe8b828c01610237565b9097509550610311905060608a0161027c565b935061031f60808a0161027c565b925061032d60a08a0161028d565b915061033b60c08a0161029d565b90509295985092959890939650565b5f5f5f5f5f5f60a0878903121561035f575f5ffd5b6103688761021c565b955060208701359450604087013567ffffffffffffffff81111561038a575f5ffd5b61039689828a01610237565b90955093506103a990506060880161028d565b91506103b76080880161029d565b90509295509295509295565b5f5f604083850312156103d4575f5ffd5b6103dd8361021c565b946020939093013593505050565b81835281816020850137505f828201602090810191909152601f909101601f19169091010190565b60c081525f61042660c08301898b6103eb565b961515602083015250600394850b60408201529290930b606083015260ff16608082015263ffffffff90911660a0909101529291505056fea2646970667358221220d80513d9f6686708240997ad811eb766edf0184a21f73b3abeaffaa1d03151c464736f6c634300081c0033",
  "linkReferences": {},
  "deployedLinkReferences": {},
  "immutableReferences": {},
  "inputSourceName": "project/contracts/Observations.sol",
  "buildInfoId": "solc-0_8_28-ff48a1cc58d9f563bbf4693e622a452cd3b4a967"
}