{
  "_format": "hh3-artifact-1",
  "contractName": "Observations",
  "sourceName": "contracts/Observations.sol",
  "abi": [
    {
      "anonymous": false,
      "inputs": [
        {
          "indexed": true,
          "internalType": "address",
          "name": "collection",
          "type": "address"
        },
        {
          "indexed": true,
          "internalType": "uint256",
          "name": "tokenId",
          "type": "uint256"
        },
        {
          "indexed": true,
          "internalType": "address",
          "name": "observer",
          "type": "address"
        },
        {
          "indexed": false,
          "internalType": "string",
          "name": "note",
          "type": "string"
        },
        {
          "indexed": false,
          "internalType": "bool",
          "name": "located",
          "type": "bool"
        },
        {
          "indexed": false,
          "internalType": "int32",
          "name": "x",
          "type": "int32"
        },
        {
          "indexed": false,
          "internalType": "int32",
          "name": "y",
          "type": "int32"
        }
      ],
      "name": "Observation",
      "type": "event"
    },
    {
      "inputs": [
        {
          "internalType": "address",
          "name": "",
          "type": "address"
        },
        {
          "internalType": "uint256",
          "name": "",
          "type": "uint256"
        }
      ],
      "name": "artifacts",
      "outputs": [
        {
          "internalType": "uint128",
          "name": "count",
          "type": "uint128"
        },
        {
          "internalType": "uint128",
          "name": "firstBlock",
          "type": "uint128"
        }
      ],
      "stateMutability": "view",
      "type": "function"
    },
    {
      "inputs": [
        {
          "internalType": "address",
          "name": "collection",
          "type": "address"
        },
        {
          "internalType": "uint256",
          "name": "tokenId",
          "type": "uint256"
        },
        {
          "internalType": "string",
          "name": "note",
          "type": "string"
        }
      ],
      "name": "observe",
      "outputs": [],
      "stateMutability": "nonpayable",
      "type": "function"
    },
    {
      "inputs": [
        {
          "internalType": "address",
          "name": "collection",
          "type": "address"
        },
        {
          "internalType": "uint256",
          "name": "tokenId",
          "type": "uint256"
        },
        {
          "internalType": "string",
          "name": "note",
          "type": "string"
        },
        {
          "internalType": "int32",
          "name": "x",
          "type": "int32"
        },
        {
          "internalType": "int32",
          "name": "y",
          "type": "int32"
        }
      ],
      "name": "observeAt",
      "outputs": [],
      "stateMutability": "nonpayable",
      "type": "function"
    }
  ],
  "bytecode": "0x6080604052348015600e575f5ffd5b5061040a8061001c5f395ff3fe608060405234801561000f575f5ffd5b506004361061003f575f3560e01c80634cdf915414610043578063547a026014610058578063dd772be11461006b575b5f5ffd5b610056610051366004610281565b6100ca565b005b6100566100663660046102fa565b610131565b6100a6610079366004610350565b5f6020818152928152604080822090935290815220546001600160801b0380821691600160801b90041682565b604080516001600160801b0393841681529290911660208301520160405180910390f35b6100d48686610195565b336001600160a01b031685876001600160a01b03167fb645d6fd0c2de8d8e98e88da5044eb2653957c181f931ccb6414e0dd8a1f9eba8787600188886040516101219594939291906103a0565b60405180910390a4505050505050565b61013b8484610195565b336001600160a01b031683856001600160a01b03167fb645d6fd0c2de8d8e98e88da5044eb2653957c181f931ccb6414e0dd8a1f9eba85855f5f5f6040516101879594939291906103a0565b60405180910390a450505050565b6001600160a01b0382165f908152602081815260408083208484529091528120805490916001600160801b0390911690036101e35780546001600160801b03438116600160801b0291161781555b80546001600160801b03808216600101166fffffffffffffffffffffffffffffffff199091161790555050565b80356001600160a01b0381168114610226575f5ffd5b919050565b5f5f83601f84011261023b575f5ffd5b50813567ffffffffffffffff811115610252575f5ffd5b602083019150836020828501011115610269575f5ffd5b9250929050565b8035600381900b8114610226575f5ffd5b5f5f5f5f5f5f60a08789031215610296575f5ffd5b61029f87610210565b955060208701359450604087013567ffffffffffffffff8111156102c1575f5ffd5b6102cd89828a0161022b565b90955093506102e0905060608801610270565b91506102ee60808801610270565b90509295509295509295565b5f5f5f5f6060858703121561030d575f5ffd5b61031685610210565b935060208501359250604085013567ffffffffffffffff811115610338575f5ffd5b6103448782880161022b565b95989497509550505050565b5f5f60408385031215610361575f5ffd5b61036a83610210565b946020939093013593505050565b81835281816020850137505f828201602090810191909152601f909101601f19169091010190565b608081525f6103b3608083018789610378565b941515602083015250600392830b6040820152910b6060909101529291505056fea2646970667358221220e2d5de7037dec791bdd8436d9c2c330e14f3392d57d21f176ad500bf01287bf164736f6c634300081c0033",
  "linkReferences": {},
  "deployedLinkReferences": {},
  "immutableReferences": {},
  "inputSourceName": "project/contracts/Observations.sol",
  "buildInfoId": "solc-0_8_28-9f6b71b267a6be8fe75080d045fc5f46eb7ef98f"
}