{
  "_format": "hh3-artifact-1",
  "contractName": "Observations",
  "sourceName": "contracts/Observations.sol",
  "abi": [
    {
      "inputs": [],
      "name": "InvalidParent",
      "type": "error"
    },
    {
      "inputs": [],
      "name": "InvalidRecipient",
      "type": "error"
    },
    {
      "inputs": [],
      "name": "NoTipsToClaim",
      "type": "error"
    },
    {
      "inputs": [],
      "name": "NotAuthorized",
      "type": "error"
    },
    {
      "inputs": [],
      "name": "TipsNotYetClaimable",
      "type": "error"
    },
    {
      "inputs": [],
      "name": "TransferFailed",
      "type": "error"
    },
    {
      "inputs": [],
      "name": "UpdateRequiresParent",
      "type": "error"
    },
    {
      "anonymous": false,
      "inputs": [
        {
          "indexed": true,
          "internalType": "address",
          "name": "collection",
          "type": "address"
        },
        {
          "indexed": true,
          "internalType": "uint256",
          "name": "tokenId",
          "type": "uint256"
        },
        {
          "indexed": true,
          "internalType": "address",
          "name": "observer",
          "type": "address"
        },
        {
          "indexed": false,
          "internalType": "uint64",
          "name": "id",
          "type": "uint64"
        },
        {
          "indexed": false,
          "internalType": "uint64",
          "name": "parent",
          "type": "uint64"
        },
        {
          "indexed": false,
          "internalType": "bool",
          "name": "update",
          "type": "bool"
        },
        {
          "indexed": false,
          "internalType": "string",
          "name": "note",
          "type": "string"
        },
        {
          "indexed": false,
          "internalType": "int32",
          "name": "x",
          "type": "int32"
        },
        {
          "indexed": false,
          "internalType": "int32",
          "name": "y",
          "type": "int32"
        },
        {
          "indexed": false,
          "internalType": "uint8",
          "name": "viewType",
          "type": "uint8"
        },
        {
          "indexed": false,
          "internalType": "uint32",
          "name": "time",
          "type": "uint32"
        },
        {
          "indexed": false,
          "internalType": "uint256",
          "name": "tip",
          "type": "uint256"
        },
        {
          "indexed": false,
          "internalType": "address",
          "name": "tipRecipient",
          "type": "address"
        }
      ],
      "name": "Observation",
      "type": "event"
    },
    {
      "anonymous": false,
      "inputs": [
        {
          "indexed": true,
          "internalType": "address",
          "name": "recipient",
          "type": "address"
        },
        {
          "indexed": true,
          "internalType": "address",
          "name": "claimant",
          "type": "address"
        },
        {
          "indexed": false,
          "internalType": "uint256",
          "name": "amount",
          "type": "uint256"
        }
      ],
      "name": "TipsClaimed",
      "type": "event"
    },
    {
      "inputs": [
        {
          "internalType": "address",
          "name": "",
          "type": "address"
        },
        {
          "internalType": "uint256",
          "name": "",
          "type": "uint256"
        }
      ],
      "name": "artifacts",
      "outputs": [
        {
          "internalType": "uint64",
          "name": "count",
          "type": "uint64"
        },
        {
          "internalType": "uint128",
          "name": "firstBlock",
          "type": "uint128"
        }
      ],
      "stateMutability": "view",
      "type": "function"
    },
    {
      "inputs": [
        {
          "internalType": "address",
          "name": "tipRecipient",
          "type": "address"
        }
      ],
      "name": "claimTips",
      "outputs": [],
      "stateMutability": "nonpayable",
      "type": "function"
    },
    {
      "inputs": [
        {
          "internalType": "address",
          "name": "collection",
          "type": "address"
        },
        {
          "internalType": "uint256",
          "name": "tokenId",
          "type": "uint256"
        },
        {
          "internalType": "uint64",
          "name": "parent",
          "type": "uint64"
        },
        {
          "internalType": "bool",
          "name": "update",
          "type": "bool"
        },
        {
          "internalType": "string",
          "name": "note",
          "type": "string"
        },
        {
          "internalType": "int32",
          "name": "x",
          "type": "int32"
        },
        {
          "internalType": "int32",
          "name": "y",
          "type": "int32"
        },
        {
          "internalType": "uint8",
          "name": "viewType",
          "type": "uint8"
        },
        {
          "internalType": "uint32",
          "name": "time",
          "type": "uint32"
        },
        {
          "internalType": "address",
          "name": "tipRecipient",
          "type": "address"
        }
      ],
      "name": "observe",
      "outputs": [],
      "stateMutability": "payable",
      "type": "function"
    },
    {
      "inputs": [
        {
          "internalType": "address",
          "name": "",
          "type": "address"
        }
      ],
      "name": "tips",
      "outputs": [
        {
          "internalType": "uint128",
          "name": "balance",
          "type": "uint128"
        },
        {
          "internalType": "uint128",
          "name": "unclaimedSince",
          "type": "uint128"
        }
      ],
      "stateMutability": "view",
      "type": "function"
    }
  ],
  "bytecode": "0x60808060405234601557610610908161001a8239f35b5f80fdfe6080806040526004361015610012575f80fd5b5f3560e01c9081631b21bc30146104fc57508063cac751de14610236578063dd772be1146101db5763fe30463614610048575f80fd5b346101d75760203660031901126101d7576001600160a01b03610069610542565b168033148015806101ba575b61016b575b1561015c57805f52600160205260405f20906001600160801b0382541691821561014d575f9081905580808085335af13d15610148573d6001600160401b0381116101345760405190601f8101601f19908116603f011682016001600160401b038111838210176101345760405281525f60203d92013e5b15610125576040519182527f64386e335e1bb9d9b5134f09a2cde00f60223db82f24e191d9f220d59ba99e6960203393a3005b6312171d8360e31b5f5260045ffd5b634e487b7160e01b5f52604160045260245ffd5b6100f2565b6338b5b97960e21b5f5260045ffd5b63ea8e4eb560e01b5f5260045ffd5b50805f52600160205260405f205460801c42034281116101a6576301e13380101561019757600161007a565b63fac10d1560e01b5f5260045ffd5b634e487b7160e01b5f52601160045260245ffd5b50735ca3d797bf631603efcb3885c8b50a6d608346003314610075565b5f80fd5b346101d75760403660031901126101d7576001600160a01b036101fc610542565b165f525f60205260405f206024355f526020526040805f20546001600160801b038251916001600160401b0381168352831c166020820152f35b6101403660031901126101d75761024b610542565b602435604435916001600160401b038316928381036101d75760643591821515918284036101d757608435906001600160401b0382116101d757366023830112156101d7578160040135966001600160401b0388116101d75736602489850101116101d75760a4358060030b8091036101d75760c435908160030b8092036101d75760e4359260ff84168094036101d757610104359463ffffffff86168096036101d757610124356001600160a01b03811697908890036101d7573415159889806104f4575b6104e55760018060a01b03169a8b5f525f60205260405f208d5f5260205260405f209081546001600160401b038116156104a3575b501561043557831561042657546001600160401b03168311610417577f917be874c35f5d6acb015b2306a0643c0089aa82f579c9d9e43a295348b8224c998d936024939a5b6103fe575b6001600160401b036040519b168b5260208b015260408a015261014060608a0152826101408a0152016101608801375f6101608b88010152608086015260a085015260c084015260e083015234610100830152610120820152610160813396601f80199101168101030190a4005b895f52600160205261041260405f20610558565b610390565b630bea7bb360e31b5f5260045ffd5b63e94f309160e01b5f5260045ffd5b8099925054986001600160401b038a166001600160401b0381146101a65760016001600160401b03910116809a6001600160401b03191617905588831015610417577f917be874c35f5d6acb015b2306a0643c0089aa82f579c9d9e43a295348b8224c998d9360249361038b565b77ffffffffffffffffffffffffffffffff000000000000000019164360401b77ffffffffffffffffffffffffffffffff0000000000000000161782558f610346565b634e46966960e11b5f5260045ffd5b508815610311565b346101d75760203660031901126101d7576040906001600160a01b03610520610542565b165f526001602052815f20546001600160801b038116825260801c6020820152f35b600435906001600160a01b03821682036101d757565b34156105d7576001600160801b03815416156105ad575b6001600160801b0334166001600160801b03825416016001600160801b0381116101a6576001600160801b03166001600160801b0319825416179055565b80546001600160801b03164260801b6fffffffffffffffffffffffffffffffff191617815561056f565b5056fea26469706673582212204343347a0526f7bd5afe98c085b759507a75b13306ca7efd51d3eaa2fb637c1064736f6c634300081c0033",
  "linkReferences": {},
  "deployedLinkReferences": {},
  "immutableReferences": {},
  "inputSourceName": "project/contracts/Observations.sol",
  "buildInfoId": "solc-0_8_28-d8ea34a6578dd9598c7734ed18a5e1e2a7bfab47"
}